:03000B000200DF11
:1000DF00C0E0C0D0300223152AE52A7028752A0304
:1000EF00D52709852426C202D2008019E524C3131F
:1000FF00F52430B010432480800B20B008D2027555
:10010F002A04752709152BE52B7027752B03300350
:10011F0021E529700AC2B18528257529098013E5C3
:10012F0025C313F525D52908D2B1C203D201800208
:07013F0092B1D0D0D0E032F4
:0E042D00C203C202D201C200E4F52BF52A225E
:0A045F003001FDC2018F28D20322F4
:100367007F057E0012037E7F0112047C7E007F05DD
:0703770012037E7F057E00EA
:10037E00D3EF9400EE94004007EF1F70F31E80F051
:01038E00224C
:09047300BF0103D2A222C2A222A1
:09047C00BF0103D2A222C2A22298
:05000300D2A2C2B422EC
:03000800D2B4224D
:1003D3001200087F0112047312047C12037AE4FFF3
:0E03E3001204737F05FE12037EE4FF02047C09
:1003F100120008E4FF1204730F12047C7F05FE1241
:0E040100037E7F011204737F057E0002037EDE
:0904690030A2047F018002E4FFCF
:010472002267
:10020900120008AD07E4FCE4FF12047C7F05FE122E
:10021900037EED20E704E4FF80027F0112047312DC
:100229000367ED25E0FD0CBC08DDE4FF12047CFE4C
:1002390012037512000312036E7D01E4FBFA120426
:1002490069EF7003FD800E12037A0BBB00010ABA35
:0C02590002ECBB58E9E4FF12047CAF0586
:010265002276
:0202B500AD0793
:1002B700E4FC120003FBEC25E0FCE4FF12047C7F66
:1002C70005FE120377120367120469EF6005430402
:1002D7000180035304FE0BBB08DCE4FF12047C7FA0
:1002E70005FE12037EAF0512047312037A1200088B
:0A02F70012036EE4FF12047CAF0452
:0103010022D9
:0801AA008F168B178A188919C2
:1001B200751B0AE51B60101203D3AF16120209EF7A
:1001C2006005D51BEED322E4F51BE51A14FFE51BEF
:1001D200C39F5019E4FF1202B5AB17AA18A91985DB
:1001E2001B82758300EF120293051B80DD7F0112D3
:1001F20002B5AB17AA18A919851B82758300EF12E5
:0602020002931203F1C398
:0102080022D3
:060146008B098A0A890BF7
:10014C00750D0AA907E50DD3940040211203D3AF16
:10015C00011202098F0EE50E6013AF01120209EFB6
:10016C00600B150DE50DC3940A40DAD322E4F50DAE
:10017C00E50DC3950C501FAB09AA0AA90B850D827E
:10018C00758300120266FF1202098F0EE50E6002E3
:0D019C00D322050D80DA1203731203F1C3A4
:0101A9002233
:10040F00D3EF9400EE940040147D2C7C06ED1D700C
:0D041F00011C144C70F7EF1F70E61E80E307
:01042C0022AD
:02048500DFFE98
:010487002252
:10000E007589F0758E80758A30758CFFC28DD28C95
:10001E00D2A9D2B9D2AF12042DD2B5E4F521120471
:10002E00477F647E001203957FAA12045F12045F5D
:10003E0012045F12045F1204477FE87E03120395D9
:10004E001203B1E433F5147FF47E01120395E51427
:10005E0060D67FCC1203387F647E001203957F66D4
:10006E001203387F021203387F441203387F0712BF
:10007E0003387F647E001203951203028F30120341
:10008E00028F31AF3012045FAF3112045F7F647E96
:10009E00001203957FAA12033875B120E4F5B27FE2
:1000AE0032FE12040F751002E510D394274003029E
:1000BE00003612030274302510F8A607743025108E
:1000CE00F8E6FF12045F7F647E0012039505108030
:0100DE00D74A
:0C043B00EF4E6007EF1F70F81E80F522E6
:06038F00C2B37F027E00F4
:10039500AD07AC06D3ED9400EC9400400E7F017ED2
:0C03A5000012043BED1D70EC1C80E922EE
:03048800C2B422D9
:03048B00D2B422C6
:0C04470012048BD2B37FA67E0002039546
:1003B10012048BC2B3E4F5157F2C7E01120395D292
:1003C100B37F107E0012039512048820B302D3225A
:0203D100C32245
:02033800AB0711
:10033A00E4FA12048BEB30E00912038FD2B37F2662
:10034A00800DC2B37F227E00120395D2B37F067E50
:0C035A0000120395EBC313FB0ABA08D68F
:010366002274
:10030200E4FBFAEBC313FB12048BD2B312038F127A
:100312000488D2B37F057E0012039530B3054303F0
:1003220080800353037FD2B37F0F7E001203950AAE
:05033200BA08D0AF0382
:0103370022A3
:03000000020453A4
:0C045300787FE4F6D8FD75815602000E9B
:10026600BB010CE58229F582E5833AF583E022504D
:1002760006E92582F8E622BBFE06E92582F8E22297
:0D028600E58229F582E5833AF583E49322B1
:10029300F8BB010DE58229F582E5833AF583E8F0A1
:1002A300225006E92582C8F622BBFE05E92582C84D
:0202B300F22235
:00000001FF
