:1004EF00BCAE45DE69AF8334D26360694E384EA728
:1004FF0054D01D2A7DF3963E7598B0BA1BBDFCE013
:10050F002AAE45DE695B8334D26360694E384E97FD
:10051F0054D01D2A7DF3963E7598B0BA1BBDFCE0F2
:10052F0011EEAABB22558833DD6660994433449996
:10053F0055DD1D2277FF99337799BBBB11BBFFEEBA
:0A054F0005AF61380000003900001C
:1005C000204629000000000000000000000000009C
:1005D000000000000000000000000000000000001B
:1005E000000000000000000000000000000000000B
:1005F00000000000000000000000000000000000FB
:09060000000000000000000000F1
:03000B0002055992
:10055900C0E0C0D03002231527E52770287527038E
:10056900D52409852123C202D2008019E521C313AC
:10057900F52130B010432180800B20B008D20275DC
:1005890027047524091528E52870277528033003E1
:1005990021E526700AC2B18525227526098013E551
:1005A90022C313F522D52608D2B1C203D201800293
:0705B90092B1D0D0D0E03276
:0E070600C203C202D201C200E4F528F5272288
:1006EA007FAA1206FC1206FC7F021206FC7FAA12DF
:0206FA0006FCFC
:0A06FC003001FDC2018F25D2032258
:1006CA00D3EF9400EE940040167D2C7C06D2B3ED55
:0F06DA001D70011CED4C70F5EF1F70E41E80E1E8
:0106E90022EE
:02000300DFFE1E
:0100050022D8
:0403D1008F0E8D0FEF
:1003D5007FE87E0312068D1206A9E433F5117FF43A
:1003E5007E0112068DE511606EE4F5117FCC1206D3
:1003F5004D7F647E0012068D7F6612064DAF0E128C
:10040500064D7F4412064DAF0F12064D7F647E00E8
:1004150012068D12060A8F2912060A8F2A7F647E1C
:100425000012068D7FAA12064D7F327E001206CA83
:1004350075100212060A74292510F8A607742925D5
:1004450010F8E6FF1206FC7F647E0012068D05108B
:0E045500E510C3942740DC7FE87E0302068D8D
:0A000E008F0E8D0F8B108A118912DE
:100018007FE87E0312068D78297C007D00AB10AA4C
:1000280011A9127E007F201201DA7F647E00120679
:100038008D1206A9E433F5177FF47E0112068DE5CB
:10004800177003020103E4F5177FCC12064D7F6495
:100058007E0012068D7F6612064DAF0E12064D7F8A
:100068009612064DAF0F12064D7F647E0012068D64
:10007800E4F513F51474292514F8E6FF12064D7FEC
:10008800647E0012068D0514E51470020513D394DE
:100098001FE5136480948040DC12060A8F4912061B
:1000A8000A8F4A7F647E0012068D7FAA12064D7F52
:1000B800647E0012068D7F647E0012068D7F647E4A
:1000C8000012068D7F647E0012068D7F647E00120A
:1000D80006CAE4F515F51612060A744B2516F8A695
:1000E800077F647E0012068D0516E5167002051559
:1000F800C39405E5156480948040DC7FE87E0302A4
:02010800068D62
:0A0200008F0E8D0F8B108A118912EA
:10020A007FE87E0312068D78297C007D00AB10AA58
:10021A0011A9127E007F201201DA1206A9E433F531
:10022A00177FF47E0112068DE51770030202EBE4D4
:10023A00F5177FCC12064D7F647E0012068D7F660D
:10024A0012064D7F2312064D7FA512064DAF0E12E0
:10025A00064DAF0F12064D7F647E0012068DE4F53F
:10026A0013F51474292514F8E6FF12064D7429258E
:10027A0014F8E6FF1206FC7F647E0012068D051450
:10028A00E51470020513D3941FE51364809480402B
:10029A00D212060A8F4912060A8F4A7F647E00121A
:1002AA00068D7FAA12064D7F327E001206CAE4F539
:1002BA0015F51612060AAE1674292EF8A607742921
:1002CA002EF8E6FF1206FC7F647E0012068D0516E4
:1002DA00E51670020515C39425E5156480948040DF
:0802EA00D27FE87E0302068DBD
:09072C008F198B1A8A1B891C220B
:1002F2007589F0758E80758A30758CFFC28DD28CAF
:10030200D2A9D2B9D2AF120706D2B51207207F64A2
:100312007E0012068DE4F50BF50C1206EA1206A910
:10032200E433F50D7FF47E0112068DE50D602CE4B9
:10033200F50D7F3312064D7F647E0012068DE4F5C3
:100342000912060A74292509F8A6077F647E00129D
:10035200068D0509E509D3940740E67FE87E03127E
:10036200068D1206F77F011206F47BFF7A0479EFFD
:10037200E4FD7F2212000E7FE87E0312068DE4FD6B
:100382007F021203D17FE87E0312068D7BFF7A057E
:10039200790F7D067F2212000E7FE87E0312068D02
:1003A2001206EA7D077F021203D17FE87E0312065E
:1003B2008D1206F77F031206F47BFF7A05792FE48C
:0F03C200FDFF1202007FE87E0312068D02031C6E
:0C071400EF4E6007EF1F70F81E80F5220A
:06068700C2B37F027E00F9
:10068D00AD07AC06D3ED9400EC9400400E7F017ED7
:0C069D0000120714ED1D70EC1C80E92217
:03000600C2B4225F
:03073500D2B42219
:0C072000120735D2B37FF47E0102068D73
:1006A900120735C2B3E4F5187FC8FE12068DD2B31E
:1006B9007F1E7E0012068D12000620B302D322C3CC
:0106C900220E
:02064D00AB07F9
:10064F00E4FA120735EB30E009120687D2B37F26A2
:10065F00800DC2B37F227E0012068DD2B37F067E3D
:10066F000012068DEBC313FB0ABA08D6120735D258
:08067F00B37F647E0002068DCA
:10060A00E4FBFAEBC313FB120735D2B312068912C5
:10061A000687120006D2B37F057E0012068D30B31C
:10062A0005430380800353037FD2B37F217E0012E8
:10063A00068D0ABA08CD1207357F217E0012068D73
:02064A00AF03FC
:01064C00228B
:0300000002046394
:0C046300787FE4F6D8FD75816E0204AAD3
:10010A00E709F608DFFA8046E709F208DFFA803ED7
:10011A0088828C83E709F0A3DFFA8032E309F608C4
:10012A00DFFA8078E309F208DFFA807088828C832C
:10013A00E309F0A3DFFA806489828A83E0A3F608E0
:10014A00DFFA805889828A83E0A3F208DFFA804CBA
:10015A0080D280FA80C680D4806980F28033801091
:10016A0080A680EA809A80A880DA80E280CA8033FA
:10017A0089828A83ECFAE493A3C8C582C8CCC58372
:10018A00CCF0A3C8C582C8CCC583CCDFE9DEE78042
:10019A000D89828A83E493A3F608DFF9ECFAA9F0C1
:1001AA00EDFB2289828A83ECFAE0A3C8C582C8CC17
:1001BA00C583CCF0A3C8C582C8CCC583CCDFEADE30
:1001CA00E880DB89828A83E493A3F208DFF980CC92
:1001DA0088F0EF60010E4E60C388F0ED2402B4048B
:1001EA000050B9F582EB2402B4040050AF23234532
:0601FA00822390015A73FC
:10046F000202F2E493A3F8E493A34003F68001F2AF
:10047F0008DFF48029E493A3F85407240CC8C3338E
:10048F00C4540F4420C8834004F456800146F6DF5D
:10049F00E4800B01020408102040809005C0E47E28
:1004AF00019360BCA3FF543F30E509541FFEE49352
:1004BF00A360010ECF54C025E060A840B8E493A319
:1004CF00FAE493A3F8E493A3C8C582C8CAC583CA44
:1004DF00F0A3C8C582C8CAC583CADFE9DEE780BEFC
:0106090000F0
:00000001FF
