:03000B0002000EE2
:10000E00C0E0C0D0300223152AE52A7028752A03D5
:10001E00D52709852426C202D2008019E524C313F0
:10002E00F52430B010432480800B20B008D2027526
:10003E002A04752709152BE52B7027752B03300322
:10004E0021E529700AC2B18528257529098013E595
:10005E0025C313F525D52908D2B1C203D2018002DA
:07006E0092B1D0D0D0E032C6
:0E03A300C203C202D201C200E4F52BF52A22E9
:0A03D5003001FDC2018F28D203227F
:100305007F057E0012031C7F011203F27E007F052C
:0703150012031C7F057E00AE
:10031C00D3EF9400EE94004007EF1F70F31E80F0B3
:01032C0022AE
:0903E900BF0103D2A222C2A2222C
:0903F200BF0103D2A222C2A22223
:05000300D2A2C2B422EC
:03000800D2B4224D
:10032D001200087F011203E91203F2120318E4FF11
:0E033D001203E97F05FE12031CE4FF0203F227
:10034B00120008E4FF1203E90F1203F27F05FE12FD
:0E035B00031C7F011203E97F057E0002031CD4
:0903DF0030A2047F018002E4FF5A
:0103E80022F2
:10013800120008AD07E4FCE4FF1203F27F05FE128B
:10014800031CED20E704E4FF80027F011203E9129B
:100158000305ED25E0FD0CBC08DDE4FF1203F2FE0B
:1001680012031312000312030C7D01E4FBFA1203BD
:10017800DFEF7003FD800E1203180BBB00010ABAF3
:0C01880002ECBB58E9E4FF1203F2AF05E3
:010194002248
:0201E400AD0765
:1001E600E4FC120003FBEC25E0FCE4FF1203F27FC3
:1001F60005FE1203151203051203DFEF6005430423
:100206000180035304FE0BBB08DCE4FF1203F27FFC
:1002160005FE12031CAF051203E9120318120008AB
:0A02260012030CE4FF1203F2AF0410
:0102300022AB
:0800D9008F0F8B108A118912B0
:1000E10075140AE514601012032DAF0F120138EFD9
:1000F1006005D514EED322E4F514E51314FFE514DD
:10010100C39F5019E4FF1201E4AB10AA11A9128593
:100111001482758300EF1201C2051480DD7F011284
:1001210001E4AB10AA11A912851482758300EF12A4
:0601310001C212034BC3E2
:0101370022A5
:060075008B098A0A890BC9
:10007B00750D0AA907E50DD39400402112032DAF8E
:10008B00011201388F0EE50E6013AF01120138EF2C
:10009B00600B150DE50DC3940A40DAD322E4F50D80
:1000AB00E50DC3950C501FAB09AA0AA90B850D8250
:1000BB00758300120195FF1201388F0EE50E600259
:0D00CB00D322050D80DA12031112034BC37E
:0100D8002205
:10036900D3EF9400EE940040147D2C7C06ED1D70B3
:0D037900011C144C70F7EF1F70E61E80E3AE
:010386002254
:02040000DFFE1D
:0104020022D7
:1002A6007589F0758E80758A30758CFFC28DD28CFB
:1002B600D2A9D2B9C2AF1203A3D2B5E4F521D2B303
:1002C6007F647E00120387C2B37F647E00120387B9
:0202D60080ECBA
:0C03B100EF4E6007EF1F70F81E80F52271
:10038700AD07AC06D3ED9400EC9400400E7F017EE0
:0C039700001203B1ED1D70EC1C80E92287
:0503FB00D2B3C2B422E0
:03040300D2B4224E
:0C03BD00120403D2B37FA67E0002038767
:1002D800120403C2B3E4FB7F167E011203871203E4
:1002E800FB20B3030B80FA7F0A7E00120387EBC35F
:0C02F80094504007EBD39478500122C3CF
:0103040022D6
:02027100AB07D9
:10027300E4FA120403EB30E00FC2B37F027E0012F4
:100283000387D2B37F26800DC2B37F227E00120381
:1002930087D2B37F067E00120387EBC313FB0ABA30
:0202A30008D081
:0102A5002236
:10023100E4FB120403D2B3C2B3E4FA7F02FE120359
:100241008720B3030A80FA1203FBE925E0F9EAC328
:100251009400400BEAD394035005430101800AEA5C
:0F026100C394054004EAD3940F0BBB08C5AF014B
:01027000226B
:030000000203C92F
:0C03C900787FE4F6D8FD7581430202A69F
:10019500BB010CE58229F582E5833AF583E022501F
:1001A50006E92582F8E622BBFE06E92582F8E22269
:0D01B500E58229F582E5833AF583E4932283
:1001C200F8BB010DE58229F582E5833AF583E8F073
:1001D200225006E92582C8F622BBFE05E92582C81F
:0201E200F22207
:00000001FF
